00COTAHIST.2016BOVESPA 20160229                                                                                                                                                                                                                      
012016022902AAPL34      010APPLE       DRN          R$  000000000388000000000038830000000003880000000000388100000000038830000000003842000000000392400004000000000000021500000000000083452400000000000000009999123100000010000000000000BRAAPLBDR004116
012016022996AAPL34F     020APPLE       DRN          R$  000000000388300000000038830000000003883000000000388300000000038830000000000000000000000000000002000000000000000157000000000000609631000000000000009999123100000010000000000000BRAAPLBDR004116
012016022996ABCB10F     020ABC BRASIL  PN  REC N2   R$  000000000080000000000008000000000000800000000000080000000000008000000000000800000000000089000003000000000000000095000000000000076000000000000000009999123100000010000000000000BRABCBR09PR2124
012016022902ABCB4       010ABC BRASIL  PN      N2   R$  000000000087300000000008930000000000868000000000088300000000008800000000000880000000000089001107000000000000281200000000000248304300000000000000009999123100000010000000000000BRABCBACNPR4125
012016022996ABCB4F      020ABC BRASIL  PN      N2   R$  000000000087500000000008870000000000853000000000087700000000008870000000000849000000000088700014000000000000000275000000000000241335000000000000009999123100000010000000000000BRABCBACNPR4125
012016022912ABCP11      010FII ABC IMOBCI           R$  000000000095000000000009500000000000950000000000095000000000009500000000000950000000000096000002000000000000000107000000000000101650000000000000009999123100000010000000000000BRABCPCTF000244
012016022902ABEV3       010AMBEV S/A   ON           R$  000000000179000000000017990000000001751000000000177000000000017640000000001759000000000176426368000000000015340300000000027152709200000000000000009999123100000010000000000000BRABEVACNOR1112
012016022996ABEV3F      020AMBEV S/A   ON           R$  000000000179000000000017990000000001752000000000177500000000017900000000001761000000000179000587000000000000012828000000000022782524000000000000009999123100000010000000000000BRABEVACNOR1112
012016022962ABEV3T      030AMBEV S/A   ON        017R$  000000000179500000000017960000000001795000000000179500000000017960000000000000000000000000000002000000000000001000000000000001795130000000000000009999123100000010000000000000BRABEVACNOR1112
012016022962ABEV3T      030AMBEV S/A   ON        030R$  000000000178200000000017830000000001782000000000178200000000017830000000000000000000000000000002000000000000001000000000000001782698000000000000009999123100000010000000000000BRABEVACNOR1112
012016022978ABEVC17     070ABEV  FM    ON        000R$  000000000006900000000000800000000000053000000000006500000000000550000000000052000000000006000063000000000000249400000000000016415800000000000174502016032100000010000000000000BRABEVACNOR1110
012016022978ABEVC18     070ABEV  FM    ON        000R$  000000000004200000000000500000000000028000000000003800000000000290000000000028000000000003500062000000000000201600000000000007748100000000000179502016032100000010000000000000BRABEVACNOR1110
012016022978ABEVC19     070ABEVE       ON        000R$  000000000000600000000000060000000000004000000000000400000000000040000000000002000000000000600004000000000000011700000000000000058100000000000192002016032100000010000000000000BRABEVACNOR1110
012016022978ABEVC48     070ABEV  FM    ON        000R$  000000000003900000000000390000000000013000000000001800000000000130000000000012000000000001400029000000000000149600000000000002820900000000000184502016032100000010000000000000BRABEVACNOR1110
012016022978ABEVC67     070ABEVE       ON        000R$  000000000007500000000000850000000000070000000000007300000000000700000000000068000000000008000007000000000000009000000000000000665000000000000172002016032100000010000000000000BRABEVACNOR1111
012016022978ABEVC68     070ABEVE       ON        000R$  000000000003200000000000320000000000027000000000003000000000000270000000000001000000000000000002000000000000008000000000000000241000000000000182002016032100000010000000000000BRABEVACNOR1111
012016022978ABEVC69     070ABEV  FM    ON        000R$  000000000000700000000000080000000000005000000000000700000000000050000000000004000000000003100003000000000000007600000000000000056200000000000189502016032100000010000000000000BRABEVACNOR1110
012016022978ABEVC77     070ABEVE       ON        000R$  000000000006000000000000600000000000039000000000004500000000000410000000000000000000000004500025000000000000067000000000000003064700000000000177002016032100000010000000000000BRABEVACNOR1110
012016022978ABEVC78     070ABEVE       ON        000R$  000000000001100000000000110000000000011000000000001100000000000110000000000000000000000001200001000000000000000100000000000000001100000000000187002016032100000010000000000000BRABEVACNOR1110
012016022978ABEVD18     070ABEV  FM    ON        000R$  000000000003500000000000450000000000034000000000004200000000000340000000000000000000000000000016000000000000020000000000000000846300000000000184502016041800000010000000000000BRABEVACNOR1110
012016022978ABEVD19     070ABEVE       ON        000R$  000000000003100000000000340000000000030000000000003100000000000300000000000000000000000004100005000000000000018600000000000000577600000000000187002016041800000010000000000000BRABEVACNOR1108
012016022978ABEVD20     070ABEV  FM    ON        000R$  000000000001700000000000170000000000017000000000001700000000000170000000000009000000000002000002000000000000020000000000000000340000000000000194502016041800000010000000000000BRABEVACNOR1107
012016022978ABEVD48     070ABEV  FM    ON        000R$  000000000006300000000000710000000000063000000000006600000000000690000000000000000000000008000006000000000000036600000000000002445800000000000179502016041800000010000000000000BRABEVACNOR1107
012016022978ABEVD49     070ABEV  FM    ON        000R$  000000000002300000000000230000000000023000000000002300000000000230000000000000000000000000000001000000000000001200000000000000027600000000000189502016041800000010000000000000BRABEVACNOR1107
012016022978ABEVD68     070ABEVE       ON        000R$  000000000005800000000000580000000000058000000000005800000000000580000000000000000000000010900001000000000000001000000000000000058000000000000182002016041800000010000000000000BRABEVACNOR1111
012016022978ABEVD81     070ABEV  FM    ON        000R$  000000000010400000000001040000000000081000000000009400000000000810000000000000000000000000000017000000000000109300000000000010294600000000000174502016041800000010000000000000BRABEVACNOR1107
012016022978ABEVE20     070ABEVE       ON        000R$  000000000002300000000000230000000000023000000000002300000000000230000000000000000000000000000001000000000000000500000000000000011500000000000197002016051600000010000000000000BRABEVACNOR1110
012016022978ABEVE49     070ABEV        ON        000R$  000000000003600000000000360000000000036000000000003600000000000360000000000000000000000000000001000000000000000500000000000000018000000000000194502016051600000010000000000000BRABEVACNOR1110
012016022978ABEVE77     070ABEVE       ON        000R$  000000000010000000000001000000000000100000000000010000000000001000000000000000000000000000000001000000000000010000000000000001000000000000000177002016051600000010000000000000BRABEVACNOR1111
012016022978ABEVG20     070ABEV        ON        000R$  000000000005800000000000580000000000058000000000005800000000000580000000000000000000000012500001000000000000002800000000000000162400000000000194502016071800000010000000000000BRABEVACNOR1107
012016022978ABEVH79     070ABEVE       ON        000R$  000000000007400000000000740000000000074000000000007400000000000740000000000000000000000000000001000000000000005000000000000000370000000000000197002016081500000010000000000000BRABEVACNOR1111
012016022982ABEVO17     080ABEVE FM    ON        000R$  000000000002000000000000310000000000020000000000002300000000000310000000000000000000000003100016000000000000096700000000000002283200000000000174502016032100000010000000000000BRABEVACNOR1110
012016022982ABEVO18     080ABEVE FM    ON        000R$  000000000003700000000000530000000000037000000000004900000000000520000000000000000000000000000006000000000000035000000000000001745000000000000179502016032100000010000000000000BRABEVACNOR1110
012016022982ABEVO46     080ABEVE       ON        000R$  000000000000700000000000070000000000006000000000000600000000000060000000000000000000000000000002000000000000004500000000000000030000000000000164502016032100000010000000000000BRABEVACNOR1110
012016022982ABEVO47     080ABEVE FM    ON        000R$  000000000001100000000000150000000000011000000000001200000000000150000000000000000000000001900016000000000000120000000000000001459400000000000169502016032100000010000000000000BRABEVACNOR1108
012016022982ABEVO48     080ABEVE FM    ON        000R$  000000000007000000000000890000000000067000000000008000000000000850000000000000000000000000000052000000000000227100000000000018212400000000000184502016032100000010000000000000BRABEVACNOR1110
012016022982ABEVO67     080ABEVE       ON        000R$  000000000002000000000000200000000000013000000000001300000000000130000000000000000000000000000007000000000001031700000000000014434400000000000172002016032100000010000000000000BRABEVACNOR1111
012016022982ABEVO68     080ABEVE       ON        000R$  000000000006800000000000680000000000068000000000006800000000000680000000000000000000000000000001000000000000007000000000000000476000000000000182002016032100000010000000000000BRABEVACNOR1111
012016022982ABEVO76     080ABEVE       ON        000R$  000000000001000000000000100000000000010000000000001000000000000100000000000000000000000000000002000000000000019700000000000000197000000000000167002016032100000010000000000000BRABEVACNOR1112
012016022982ABEVP18     080ABEVE FM    ON        000R$  000000000008800000000000970000000000075000000000008200000000000800000000000000000000000000000018000000000000095800000000000007858400000000000184502016041800000010000000000000BRABEVACNOR1110
012016022982ABEVP48     080ABEVE FM    ON        000R$  000000000005800000000000670000000000050000000000005600000000000550000000000000000000000000000012000000000000081600000000000004632700000000000179502016041800000010000000000000BRABEVACNOR1107
012016022982ABEVP81     080ABEVE FM    ON        000R$  000000000004400000000000440000000000036000000000003800000000000360000000000009000000000007200005000000000000038300000000000001458800000000000174502016041800000010000000000000BRABEVACNOR1107
012016022982ABEVP96     080ABEVE       ON        000R$  000000000002500000000000260000000000025000000000002500000000000260000000000000000000000000000004000000000000022000000000000000566500000000000167002016041800000010000000000000BRABEVACNOR1108
012016022982ABEVQ68     080ABEVE       ON        000R$  000000000008200000000000820000000000076000000000008000000000000760000000000000000000000000000002000000000000015000000000000001200000000000000182002016051600000010000000000000BRABEVACNOR1111
012016022982ABEVQ77     080ABEVE       ON        000R$  000000000006100000000000610000000000061000000000006100000000000610000000000000000000000000000001000000000000009400000000000000573400000000000177002016051600000010000000000000BRABEVACNOR1111
012016022982ABEVQ95     080ABEVE       ON        000R$  000000000007000000000000700000000000065000000000006700000000000650000000000000000000000000000002000000000000020000000000000001350000000000000179502016051600000010000000000000BRABEVACNOR1108
012016022982ABEVQ96     080ABEVE       ON        000R$  000000000009500000000000950000000000088000000000009100000000000880000000000000000000000000000002000000000000020000000000000001830000000000000184502016051600000010000000000000BRABEVACNOR1108
012016022982ABEVR19     080ABEVE       ON        000R$  000000000015000000000001500000000000150000000000015000000000001500000000000000000000000000000001000000000000005000000000000000750000000000000194502016062000000010000000000000BRABEVACNOR1111
012016022982ABEVR78     080ABEVE       ON        000R$  000000000010800000000001080000000000108000000000010800000000001080000000000000000000000000000001000000000000010000000000000001080000000000000187002016062000000010000000000000BRABEVACNOR1111
012016022982ABEVS18     080ABEVE       ON        000R$  000000000007000000000000700000000000070000000000007000000000000700000000000000000000000000000001000000000000002800000000000000196000000000000174502016071800000010000000000000BRABEVACNOR1107
012016022982ABEVS45     080ABEVE       ON        000R$  000000000001500000000000150000000000015000000000001500000000000150000000000000000000000000000001000000000000002800000000000000042000000000000159502016071800000010000000000000BRABEVACNOR1112
012016022982ABEVT45     080ABEVE       ON        000R$  000000000001000000000000100000000000010000000000001000000000000100000000000000000000000000000002000000000000005000000000000000050000000000000159502016081500000010000000000000BRABEVACNOR1112
012016022982ABEVT87     080ABEVE       ON        000R$  000000000008200000000000830000000000080000000000008000000000000830000000000000000000000000000003000000000000005200000000000000416500000000000177002016081500000010000000000000BRABEVACNOR1112
012016022902ABTT34      010ABBOTT      DRN          R$  000000000389900000000038990000000003899000000000389900000000038990000000003844000000000392700002000000000000001900000000000007408100000000000000009999123100000010000000000000BRABTTBDR007117
012016022996ABTT34F     020ABBOTT      DRN          R$  000000000389900000000038990000000003899000000000389900000000038990000000000000000000000000000002000000000000000102000000000000397698000000000000009999123100000010000000000000BRABTTBDR007117
012016022912AEFI11      010FII AESAPAR CI           R$  000000000974400000000098000000000009720000000000974600000000097980000000009736000000000979800028000000000000001354000000000013197354000000000000009999123100000010000000000000BRAEFICTF002150
012016022912AGCX11      010FII AG CAIXACI           R$  000000009310000000000943990000000092516000000009343500000000932500000000093250000000009380000029000000000000000227000000000021209865000000000000009999123100000010000000000000BRAGCXCTF003139
012016022902AGRO3       010BRASILAGRO  ON      NM   R$  000000000109200000000011150000000001092000000000110100000000011150000000001093000000000111500104000000000000033900000000000037346100000000000000009999123100000010000000000000BRAGROACNOR7104
012016022996AGRO3F      020BRASILAGRO  ON      NM   R$  000000000109100000000011050000000001089000000000109300000000011050000000001105000000000120000011000000000000000174000000000000190239000000000000009999123100000010000000000000BRAGROACNOR7104
012016022912ALMI11B     010FII TORRE ALCI      MB   R$  000000013100000000001340000000000130100000000013111400000001301000000000131000000000013400000012000000000000000049000000000006424624000000000000009999123100000010000000000000BRALMICTF003234
012016022902ALPA3       010ALPARGATAS  ON      N1   R$  000000000099900000000009990000000000980000000000098300000000009860000000000986000000000100300042000000000000004200000000000004128900000000000000009999123100000010000000000000BRALPAACNOR0215
012016022902ALPA4       010ALPARGATAS  PN      N1   R$  000000000089000000000008900000000000863000000000087800000000008890000000000872000000000088901633000000000000412500000000000362265800000000000000009999123100000010000000000000BRALPAACNPR7215
012016022996ALPA4F      020ALPARGATAS  PN      N1   R$  000000000087500000000008820000000000868000000000087400000000008740000000000820000000000090000012000000000000000273000000000000238805000000000000009999123100000010000000000000BRALPAACNPR7215
012016022902ALSC3       010ALIANSCE    ON      NM   R$  000000000106600000000010890000000001058000000000107000000000010600000000001060000000000107201727000000000000569600000000000609815200000000000000009999123100000010000000000000BRALSCACNOR0108
012016022996ALSC3F      020ALIANSCE    ON      NM   R$  000000000107700000000010780000000001060000000000107200000000010600000000001060000000000126900025000000000000000752000000000000806269000000000000009999123100000010000000000000BRALSCACNOR0108
012016022902ALUP11      010ALUPAR      UNT     N2   R$  000000000121600000000012610000000001216000000000124300000000012610000000001241000000000126100590000000000000522000000000000649135800000000000000009999123100000010000000000000BRALUPCDAM15103
012016022996ALUP11F     020ALUPAR      UNT     N2   R$  000000000122500000000012510000000001225000000000123800000000012500000000001190000000000127700019000000000000000252000000000000312050000000000000009999123100000010000000000000BRALUPCDAM15103
012016022902AMAR3       010LOJAS MARISAON      NM   R$  000000000064900000000006900000000000626000000000065300000000006260000000000626000000000065700221000000000000103800000000000067808500000000000000009999123100000010000000000000BRAMARACNOR4112
012016022996AMAR3F      020LOJAS MARISAON      NM   R$  000000000066100000000006610000000000661000000000066100000000006610000000000640000000000070000002000000000000000070000000000000046270000000000000009999123100000010000000000000BRAMARACNOR4112
012016022996AMGN34F     020AMGEN       DRN          R$  000000005730800000000573080000000057308000000005730800000000573080000000000000000000000000000002000000000000000062000000000003553096000000000000009999123100000010000000000000BRAMGNBDR004117
012016022902AMZO34      010AMAZON      DRN          R$  000000011108500000001110850000000111085000000011108500000001110850000000109975000000011169500001000000000000000100000000000011108500000000000000009999123100000010000000000000BRAMZOBDR002101
012016022996AMZO34F     020AMAZON      DRN          R$  000000011143600000001114360000000111436000000011143600000001114360000000103000000000000000000002000000000000000113000000000012592268000000000000009999123100000010000000000000BRAMZOBDR002101
012016022902ANIM3       010ANIMA       ON      NM   R$  000000000111800000000011850000000001098000000000115300000000011800000000001150000000000118701932000000000000339900000000000392052800000000000000009999123100000010000000000000BRANIMACNOR6102
012016022996ANIM3F      020ANIMA       ON      NM   R$  000000000109800000000011700000000001098000000000115400000000011410000000001141000000000117700014000000000000000369000000000000426063000000000000009999123100000010000000000000BRANIMACNOR6102
012016022902ARTR3       010ARTERIS     ON      NM   R$  000000000097500000000009810000000000975000000000097700000000009770000000000976000000000097700219000000000000078700000000000076941500000000000000009999123100000010000000000000BRARTRACNOR3105
012016022996ARTR3F      020ARTERIS     ON      NM   R$  000000000097800000000009800000000000978000000000097900000000009800000000000908000000000098000005000000000000000124000000000000121413000000000000009999123100000010000000000000BRARTRACNOR3105
012016022902ARZZ3       010AREZZO CO   ON      NM   R$  000000000173000000000018030000000001730000000000177100000000017810000000001769000000000178100735000000000000420200000000000744179700000000000000009999123100000010000000000000BRARZZACNOR3119
012016022996ARZZ3F      020AREZZO CO   ON      NM   R$  000000000172100000000017890000000001721000000000176700000000017520000000001733000000000177200032000000000000001016000000000001796254000000000000009999123100000010000000000000BRARZZACNOR3119
012016022908ATOM3       010ATOMPAR     ON           R$  000000000002000000000000200000000000018000000000001900000000000190000000000018000000000001900167000000000001053400000000000020122300000000000000009999123100000010000000000000BRATOMACNOR1100
012016022996ATOM3F      020ATOMPAR     ON           R$  000000000002300000000000230000000000023000000000002300000000000230000000000019000000000002300001000000000000000001000000000000000023000000000000009999123100000010000000000000BRATOMACNOR1100
012016022902ATTB34      010ATT INC     DRN          R$  000000001481700000000148430000000014817000000001481900000000148430000000000000000000000000000002000000000000001100000000000016301300000000000000009999123100000010000000000000BRATTBBDR007114
012016022902AVON34      010AVON        DRN          R$  000000000075300000000007530000000000753000000000075300000000007530000000000751000000000079000002000000000000016000000000000012048000000000000000009999123100000010000000000000BRAVONBDR009121
012016022996AVON34F     020AVON        DRN          R$  000000000075300000000007530000000000753000000000075300000000007530000000000000000000000000000002000000000000000089000000000000067017000000000000009999123100000010000000000000BRAVONBDR009121
012016022902AXPB34      010AMERICAN EXPDRN          R$  000000002232900000000223290000000022329000000002232900000000223290000000022068000000002251400001000000000000000100000000000002232900000000000000009999123100000010000000000000BRAXPBBDR007115
012016022996AXPB34F     020AMERICAN EXPDRN          R$  000000002232900000000223290000000022329000000002232900000000223290000000000000000000000000000002000000000000000123000000000002746467000000000000009999123100000010000000000000BRAXPBBDR007115
012016022902AZEV4       010AZEVEDO     PN           R$  000000000012000000000001200000000000120000000000012000000000001200000000000115000000000012000001000000000000002000000000000000240000000000000000009999123100000010000000000000BRAZEVACNPR7116
012016022902BAHI3       010BAHEMA      ON           R$  000000000029000000000002900000000000290000000000029000000000002900000000000274000000000029400001000000000000000200000000000000058000000000000000009999123100000010000000000000BRBAHIACNOR1068
012016022902BALM4       010BAUMER      PN           R$  000000000089100000000008910000000000891000000000089100000000008910000000000850000000000091000002000000000000000300000000000000267300000000000000009999123100000010000000000000BRBALMACNPR2046
012016022902BAUH4       010EXCELSIOR   PN           R$  000000000080000000000008000000000000800000000000080000000000008000000000000525000000000080000001000000000000000100000000000000080000000000000000009999123100000010000000000000BRBAUHACNPR3110
012016022902BAZA3       010AMAZONIA    ON           R$  000000000002300000000000240000000000023000000000002300000000000230000000000023000000000002400012000000000000051000000000000001174000000000000000009999123100000010000000000000BRBAZAACNOR0167
012016022996BAZA3F      020AMAZONIA    ON           R$  000000000002400000000000240000000000024000000000002400000000000240000000000024000000000002500001000000000000000100000000000000002400000000000000009999123100000010000000000000BRBAZAACNOR0167
012016022902BBAS3       010BRASIL      ON      NM   R$  000000000134000000000013690000000001324000000000135400000000013540000000001354000000000135618040000000000016339100000000022137161800000000000000009999123100000010000000000000BRBBASACNOR3257
012016022996BBAS3F      020BRASIL      ON      NM   R$  000000000132500000000013680000000001325000000000135200000000013570000000001357000000000136300304000000000000008094000000000010945712000000000000009999123100000010000000000000BRBBASACNOR3257
012016022962BBAS3T      030BRASIL      ON      NM030R$  000000000136900000000013720000000001369000000000137100000000013720000000000000000000000000000004000000000000002200000000000003016873000000000000009999123100000010000000000000BRBBASACNOR3257
012016022962BBAS3T      030BRASIL      ON      NM045R$  000000000136500000000013660000000001365000000000136500000000013660000000000000000000000000000002000000000000006000000000000008190092000000000000009999123100000010000000000000BRBBASACNOR3257
012016022962BBAS3T      030BRASIL      ON      NM060R$  000000000137600000000013770000000001376000000000137600000000013770000000000000000000000000000002000000000000000500000000000000688048000000000000009999123100000010000000000000BRBBASACNOR3257
012016022962BBAS3T      030BRASIL      ON      NM120R$  000000000139500000000013960000000001395000000000139500000000013960000000000000000000000000000002000000000000000900000000000001255666000000000000009999123100000010000000000000BRBBASACNOR3257
012016022978BBASC1      070BBASE       ON      NM000R$  000000000002500000000000330000000000025000000000002900000000000300000000000024000000000003200024000000000000042200000000000001244100000000000144102016032100000010000000000000BRBBASACNOR3257
012016022978BBASC13     070BBAS  FM    ON      NM000R$  000000000007500000000000950000000000070000000000008400000000000900000000000085000000000009000120000000000000266200000000000022386200000000000131602016032100000010000000000000BRBBASACNOR3257
012016022978BBASC14     070BBAS  FM    ON      NM000R$  000000000002800000000000440000000000027000000000003800000000000410000000000035000000000004100375000000000001293700000000000049394600000000000141602016032100000010000000000000BRBBASACNOR3257
012016022978BBASC15     070BBAS        ON      NM000R$  000000000001000000000000160000000000010000000000001300000000000160000000000013000000000001600185000000000000741100000000000009870600000000000151602016032100000010000000000000BRBBASACNOR3257
012016022978BBASC16     070BBAS        ON      NM000R$  000000000000400000000000060000000000004000000000000500000000000050000000000005000000000000600039000000000000180300000000000000961800000000000161602016032100000010000000000000BRBBASACNOR3257
012016022978BBASC17     070BBAS        ON      NM000R$  000000000000200000000000020000000000002000000000000200000000000020000000000002000000000000300006000000000000046300000000000000092600000000000171602016032100000010000000000000BRBBASACNOR3257
012016022978BBASC42     070BBAS  FM    ON      NM000R$  000000000010400000000001310000000000104000000000012100000000001230000000000096000000000015000104000000000000215200000000000026229500000000000126602016032100000010000000000000BRBBASACNOR3257
012016022978BBASC43     070BBAS  FM    ON      NM000R$  000000000004800000000000660000000000048000000000005900000000000610000000000051000000000006700082000000000000167900000000000009989100000000000136602016032100000010000000000000BRBBASACNOR3257
012016022978BBASC44     070BBAS  FM    ON      NM000R$  000000000001800000000000270000000000018000000000002200000000000240000000000020000000000003000100000000000000261800000000000005878100000000000146602016032100000010000000000000BRBBASACNOR3257
012016022978BBASC45     070BBAS        ON      NM000R$  000000000000600000000000090000000000006000000000000800000000000090000000000005000000000002000020000000000000082100000000000000715200000000000156602016032100000010000000000000BRBBASACNOR3257
012016022978BBASC46     070BBAS        ON      NM000R$  000000000000300000000000030000000000003000000000000300000000000030000000000000000000000001600002000000000000004500000000000000013500000000000166602016032100000010000000000000BRBBASACNOR3257
012016022978BBASC47     070BBAS        ON      NM000R$  000000000000200000000000020000000000002000000000000200000000000020000000000001000000000000000044000000000000230000000000000000460000000000000176602016032100000010000000000000BRBBASACNOR3257
012016022978BBASC70     070BBAS        ON      NM000R$  000000000000100000000000010000000000001000000000000100000000000010000000000000000000000000200003000000000000053200000000000000053200000000000181602016032100000010000000000000BRBBASACNOR3249
012016022978BBASD12     070BBAS        ON      NM000R$  000000000020500000000002050000000000205000000000020500000000002050000000000000000000000000000003000000000000005800000000000001189000000000000120002016041800000010000000000000BRBBASACNOR3257
012016022978BBASD13     070BBAS  FM    ON      NM000R$  000000000012000000000001410000000000119000000000012800000000001360000000000000000000000015500083000000000000156600000000000020170100000000000130002016041800000010000000000000BRBBASACNOR3257
012016022978BBASD14     070BBAS  FM    ON      NM000R$  000000000007000000000000850000000000069000000000008000000000000820000000000062000000000008600056000000000000225900000000000018224900000000000140002016041800000010000000000000BRBBASACNOR3257
012016022978BBASD15     070BBAS  FM    ON      NM000R$  000000000003800000000000480000000000038000000000004300000000000450000000000026000000000005000050000000000000102900000000000004460400000000000150002016041800000010000000000000BRBBASACNOR3257
012016022978BBASD16     070BBAS        ON      NM000R$  000000000002200000000000260000000000022000000000002400000000000250000000000008000000000003500010000000000000024500000000000000591000000000000160002016041800000010000000000000BRBBASACNOR3257
012016022978BBASD17     070BBAS        ON      NM000R$  000000000001100000000000140000000000011000000000001300000000000140000000000004000000000000000007000000000000029100000000000000396300000000000170002016041800000010000000000000BRBBASACNOR3257
012016022978BBASD43     070BBAS  FM    ON      NM000R$  000000000009200000000001100000000000092000000000010300000000001070000000000000000000000010900037000000000000064000000000000006625400000000000135002016041800000010000000000000BRBBASACNOR3257
012016022978BBASD44     070BBAS  FM    ON      NM000R$  000000000005300000000000650000000000052000000000005900000000000620000000000045000000000009000035000000000000075100000000000004436400000000000145002016041800000010000000000000BRBBASACNOR3257
012016022978BBASD45     070BBAS        ON      NM000R$  000000000003000000000000350000000000030000000000003200000000000310000000000025000000000000000006000000000000008800000000000000282500000000000155002016041800000010000000000000BRBBASACNOR3257
012016022978BBASD64     070BBASE       ON      NM000R$  000000000007000000000000710000000000070000000000007000000000000700000000000000000000000000000003000000000000005100000000000000358000000000000142502016041800000010000000000000BRBBASACNOR3257
012016022978BBASD75     070BBASE       ON      NM000R$  000000000002700000000000300000000000027000000000002800000000000300000000000007000000000003400005000000000000014200000000000000411000000000000157502016041800000010000000000000BRBBASACNOR3257
012016022978BBASE14     070BBAS        ON      NM000R$  000000000009900000000001110000000000099000000000010500000000001110000000000000000000000000000003000000000000007000000000000000741000000000000140702016051600000010000000000000BRBBASACNOR3257
012016022978BBASE15     070BBAS        ON      NM000R$  000000000006400000000000680000000000064000000000006700000000000680000000000050000000000000000004000000000000013200000000000000893800000000000150702016051600000010000000000000BRBBASACNOR3257
012016022978BBASE16     070BBAS        ON      NM000R$  000000000004200000000000440000000000042000000000004200000000000440000000000007000000000004700002000000000000006100000000000000260200000000000160702016051600000010000000000000BRBBASACNOR3257
012016022978BBASE43     070BBAS        ON      NM000R$  000000000012100000000001360000000000121000000000012700000000001330000000000000000000000000000008000000000000028000000000000003578000000000000135702016051600000010000000000000BRBBASACNOR3257
012016022978BBASE45     070BBASE       ON      NM000R$  000000000005900000000000630000000000059000000000006200000000000630000000000006000000000000000011000000000000024200000000000001509800000000000153202016051600000010000000000000BRBBASACNOR3257
012016022978BBASE5      070BBAS        ON      NM000R$  000000000005200000000000590000000000052000000000005500000000000590000000000000000000000006000003000000000000004000000000000000221000000000000155702016051600000010000000000000BRBBASACNOR3257
012016022978BBASE63     070BBASE       ON      NM000R$  000000000013500000000001500000000000135000000000014100000000001450000000000000000000000000000007000000000000024000000000000003402000000000000133202016051600000010000000000000BRBBASACNOR3255
012016022978BBASE64     070BBASE       ON      NM000R$  000000000009300000000000930000000000093000000000009300000000000930000000000000000000000000000001000000000000000400000000000000037200000000000143202016051600000010000000000000BRBBASACNOR3255
012016022978BBASE70     070BBAS        ON      NM000R$  000000000000700000000000080000000000007000000000000700000000000080000000000000000000000000000006000000000000018000000000000000132000000000000205702016051600000010000000000000BRBBASACNOR3251
012016022978BBASF4      070BBASE       ON      NM000R$  000000000007500000000000750000000000075000000000007500000000000750000000000000000000000000000001000000000000002000000000000000150000000000000148202016062000000010000000000000BRBBASACNOR3257
012016022982BBASO11     080BBASE       ON      NM000R$  000000000000600000000000060000000000005000000000000500000000000050000000000005000000000001300004000000000000015200000000000000084000000000000111602016032100000010000000000000BRBBASACNOR3257
012016022982BBASO12     080BBASE FM    ON      NM000R$  000000000002000000000000200000000000013000000000001600000000000150000000000012000000000002100078000000000000251300000000000004108900000000000121602016032100000010000000000000BRBBASACNOR3257
012016022982BBASO13     080BBASE FM    ON      NM000R$  000000000005300000000000530000000000036000000000004000000000000380000000000039000000000004200075000000000000219800000000000008837900000000000131602016032100000010000000000000BRBBASACNOR3257
012016022982BBASO14     080BBASE       ON      NM000R$  000000000008600000000000860000000000086000000000008600000000000860000000000000000000000010500001000000000000004000000000000000344000000000000141602016032100000010000000000000BRBBASACNOR3257
012016022982BBASO15     080BBASE       ON      NM000R$  000000000016000000000001600000000000160000000000016000000000001600000000000130000000000000000001000000000000002000000000000000320000000000000151602016032100000010000000000000BRBBASACNOR3257
012016022982BBASO41     080BBASE       ON      NM000R$  000000000001000000000000100000000000009000000000000900000000000100000000000005000000000001300015000000000000122600000000000001114000000000000116602016032100000010000000000000BRBBASACNOR3257
012016022982BBASO42     080BBASE FM    ON      NM000R$  000000000003100000000000310000000000023000000000002500000000000230000000000015000000000003000043000000000000073700000000000001852800000000000126602016032100000010000000000000BRBBASACNOR3257
012016022982BBASO43     080BBASE FM    ON      NM000R$  000000000007500000000000750000000000056000000000006300000000000580000000000056000000000010400100000000000000186100000000000011885900000000000136602016032100000010000000000000BRBBASACNOR3257
012016022982BBASO44     080BBASE       ON      NM000R$  000000000012000000000001200000000000120000000000012000000000001200000000000000000000000000000001000000000000004000000000000000480000000000000146602016032100000010000000000000BRBBASACNOR3257
012016022982BBASO99     080BBASE       ON      NM000R$  000000000000200000000000020000000000002000000000000200000000000020000000000000000000000001500001000000000000001000000000000000002000000000000099102016032100000010000000000000BRBBASACNOR3257
012016022982BBASP10     080BBASE       ON      NM000R$  000000000000800000000000080000000000008000000000000800000000000080000000000000000000000000000001000000000000002000000000000000016000000000000100002016041800000010000000000000BRBBASACNOR3257
012016022982BBASP11     080BBASE       ON      NM000R$  000000000001600000000000160000000000014000000000001400000000000140000000000000000000000000000005000000000000016000000000000000232000000000000110002016041800000010000000000000BRBBASACNOR3257
012016022982BBASP12     080BBASE       ON      NM000R$  000000000002900000000000300000000000029000000000002900000000000300000000000000000000000000000002000000000000002000000000000000059000000000000120002016041800000010000000000000BRBBASACNOR3257
012016022982BBASP13     080BBASE FM    ON      NM000R$  000000000006200000000000620000000000054000000000005600000000000550000000000000000000000000000043000000000000180000000000000010109300000000000130002016041800000010000000000000BRBBASACNOR3257
012016022982BBASP14     080BBASE FM    ON      NM000R$  000000000011600000000001160000000000095000000000010400000000001010000000000000000000000000000096000000000000204100000000000021342900000000000140002016041800000010000000000000BRBBASACNOR3257
012016022982BBASP40     080BBASE       ON      NM000R$  000000000001100000000000110000000000010000000000001000000000000100000000000000000000000000000004000000000000021000000000000000227000000000000105002016041800000010000000000000BRBBASACNOR3257
012016022982BBASP42     080BBASE FM    ON      NM000R$  000000000004800000000000480000000000039000000000004200000000000420000000000000000000000005000027000000000000053700000000000002291400000000000125002016041800000010000000000000BRBBASACNOR3257
012016022982BBASP43     080BBASE FM    ON      NM000R$  000000000008400000000000840000000000072000000000007700000000000750000000000000000000000000000040000000000000157600000000000012266200000000000135002016041800000010000000000000BRBBASACNOR3257
012016022982BBASP88     080BBASE       ON      NM000R$  000000000000300000000000030000000000003000000000000300000000000030000000000000000000000000000001000000000000004000000000000000012000000000000088002016041800000010000000000000BRBBASACNOR3257
012016022982BBASP94     080BBASE       ON      NM000R$  000000000000500000000000050000000000005000000000000500000000000050000000000000000000000000000001000000000000004000000000000000020000000000000094002016041800000010000000000000BRBBASACNOR3257
012016022982BBASP96     080BBASE       ON      NM000R$  000000000000600000000000060000000000006000000000000600000000000060000000000000000000000000000001000000000000004000000000000000024000000000000096002016041800000010000000000000BRBBASACNOR3257
012016022982BBASP98     080BBASE       ON      NM000R$  000000000000700000000000070000000000007000000000000700000000000070000000000000000000000000000002000000000000008000000000000000056000000000000098002016041800000010000000000000BRBBASACNOR3257
012016022982BBASQ13     080BBASE       ON      NM000R$  000000000007400000000000740000000000074000000000007400000000000740000000000000000000000000000001000000000000004000000000000000296000000000000130702016051600000010000000000000BRBBASACNOR3257
012016022982BBASQ14     080BBASE       ON      NM000R$  000000000011700000000001170000000000117000000000011700000000001170000000000000000000000000000001000000000000002000000000000000234000000000000140702016051600000010000000000000BRBBASACNOR3257
012016022982BBASQ2      080BBASE       ON      NM000R$  000000000005900000000000590000000000059000000000005900000000000590000000000000000000000000000001000000000000002000000000000000118000000000000125702016051600000010000000000000BRBBASACNOR3257
012016022982BBASQ42     080BBASE       ON      NM000R$  000000000006700000000000670000000000067000000000006700000000000670000000000000000000000008200001000000000000003000000000000000201000000000000128202016051600000010000000000000BRBBASACNOR3257
012016022982BBASQ43     080BBASE       ON      NM000R$  000000000009600000000000960000000000096000000000009600000000000960000000000000000000000000000001000000000000001000000000000000096000000000000135702016051600000010000000000000BRBBASACNOR3257
012016022982BBASQ44     080BBASE       ON      NM000R$  000000000014400000000001490000000000142000000000014500000000001490000000000000000000000000000003000000000000010000000000000001456000000000000145702016051600000010000000000000BRBBASACNOR3257
012016022982BBASQ64     080BBASE       ON      NM000R$  000000000013100000000001310000000000131000000000013100000000001310000000000000000000000000000001000000000000004000000000000000524000000000000143202016051600000010000000000000BRBBASACNOR3255
012016022982BBASR1      080BBASE       ON      NM000R$  000000000004500000000000450000000000045000000000004500000000000450000000000000000000000000000001000000000000002000000000000000090000000000000118202016062000000010000000000000BRBBASACNOR3257
012016022982BBASR13     080BBASE       ON      NM000R$  000000000011500000000001150000000000115000000000011500000000001150000000000000000000000000000001000000000000002000000000000000230000000000000130702016062000000010000000000000BRBBASACNOR3257
012016022982BBAST43     080BBASE       ON      NM000R$  000000000009900000000001150000000000099000000000010000000000001150000000000000000000000000000006000000000000010500000000000001052900000000000137702016081500000010000000000000BRBBASACNOR3257
012016022902BBDC3       010BRADESCO    ON      N1   R$  000000000228400000000023370000000002278000000000231800000000023270000000002303000000000232707445000000000003105500000000007201586600000000000000009999123100000010000000000000BRBBDCACNOR1644
012016022996BBDC3F      020BRADESCO    ON      N1   R$  000000000222800000000023300000000002228000000000230600000000023020000000002302000000000233300127000000000000002289000000000005280396000000000000009999123100000010000000000000BRBBDCACNOR1644
012016022902BBDC4       010BRADESCO    PN      N1   R$  000000000209900000000021440000000002077000000000211000000000021340000000002133000000000213527417000000000020690500000000043663867500000000000000009999123100000010000000000000BRBBDCACNPR8644
012016022996BBDC4F      020BRADESCO    PN      N1   R$  000000000207600000000021410000000002076000000000211600000000021200000000002120000000000213700826000000000000008413000000000017807392000000000000009999123100000010000000000000BRBBDCACNPR8644
012016022962BBDC4T      030BRADESCO    PN      N1016R$  000000000210400000000021430000000002097000000000211600000000021320000000000000000000000000000018000000000000019000000000000040205797000000000000009999123100000010000000000000BRBBDCACNPR8644
012016022962BBDC4T      030BRADESCO    PN      N1030R$  000000000212500000000021570000000002125000000000212800000000021570000000000000000000000000000006000000000000005600000000000011917303000000000000009999123100000010000000000000BRBBDCACNPR8644
012016022962BBDC4T      030BRADESCO    PN      N1182R$  000000000227700000000022780000000002277000000000227700000000022780000000000000000000000000000002000000000000000200000000000000455424000000000000009999123100000010000000000000BRBBDCACNPR8644
012016022978BBDCB46     070BBDC        PN      N1000R$  000000000013200000000001320000000000111000000000011100000000001300000000000000000000000000000005000000000000024700000000000002745800000000000269602017022000000010000000000000BRBBDCACNPR8644
012016022978BBDCB56     070BBDCE       PN      N1000R$  000000000013700000000001370000000000137000000000013700000000001370000000000000000000000000000002000000000000039200000000000005370400000000000267102017022000000010000000000000BRBBDCACNPR8644
012016022978BBDCB78     070BBDCE       ON      N1000R$  000000000017400000000001740000000000174000000000017400000000001740000000000000000000000000000002000000000000007800000000000001357200000000000287302017022000000010000000000000BRBBDCACNOR1644
012016022978BBDCB92     070BBDCE       PN      N1000R$  000000000029800000000002980000000000298000000000029800000000002980000000000000000000000000000001000000000000000500000000000000149000000000000232102017022000000010000000000000BRBBDCACNPR8642
012016022978BBDCC1      070BBDCE       PN      N1000R$  000000000001200000000000120000000000012000000000001200000000000120000000000000000000000001600001000000000000015000000000000000180000000000000238602016032100000010000000000000BRBBDCACNPR8635
012016022978BBDCC20     070BBDC        PN      N1000R$  000000000016900000000001980000000000166000000000017000000000001660000000000166000000000000000011000000000000013400000000000002283000000000000195902016032100000010000000000000BRBBDCACNPR8640
012016022978BBDCC21     070BBDC  FM    PN      N1000R$  000000000009900000000001330000000000094000000000011300000000001230000000000118000000000013100212000000000000407500000000000046111800000000000205902016032100000010000000000000BRBBDCACNPR8640
012016022978BBDCC23     070BBDC  FM    PN      N1000R$  000000000002200000000000320000000000022000000000002800000000000290000000000010000000000003200098000000000000236000000000000006645200000000000226102016032100000010000000000000BRBBDCACNPR8636
012016022978BBDCC27     070BBDCE       PN      N1000R$  000000000016400000000001780000000000164000000000017100000000001700000000000070000000000020700008000000000000005500000000000000944300000000000198402016032100000010000000000000BRBBDCACNPR8643
012016022978BBDCC40     070BBDC  FM    PN      N1000R$  000000000013100000000001710000000000129000000000014700000000001530000000000129000000000000000072000000000000171400000000000025225900000000000200902016032100000010000000000000BRBBDCACNPR8640
012016022978BBDCC41     070BBDCE       PN      N1000R$  000000000003900000000000600000000000039000000000004800000000000450000000000044000000000006000019000000000000021300000000000001024800000000000218602016032100000010000000000000BRBBDCACNPR8642
012016022978BBDCC42     070BBDC        PN      N1000R$  000000000003500000000000500000000000035000000000004100000000000420000000000036000000000000000069000000000000072700000000000003018800000000000221102016032100000010000000000000BRBBDCACNPR8640
012016022978BBDCC43     070BBDCE       PN      N1000R$  000000000002600000000000380000000000025000000000003200000000000350000000000026000000000000000028000000000000071300000000000002345400000000000223602016032100000010000000000000BRBBDCACNPR8636
012016022978BBDCC49     070BBDC  FM    PN      N1000R$  000000000000900000000000120000000000009000000000001000000000000100000000000001000000000001500063000000000000129300000000000001321700000000000236102016032100000010000000000000BRBBDCACNPR8629
012016022978BBDCC51     070BBDCE       PN      N1000R$  000000000009900000000001160000000000087000000000010100000000000930000000000071000000000000000032000000000000053600000000000005464800000000000208402016032100000010000000000000BRBBDCACNPR8638
012016022978BBDCC54     070BBDC        PN      N1000R$  000000000000500000000000050000000000005000000000000500000000000050000000000003000000000001000004000000000000050600000000000000253000000000000244402016032100000010000000000000BRBBDCACNPR8629
012016022978BBDCC60     070BBDCE       PN      N1000R$  000000000020000000000002140000000000187000000000019800000000002010000000000197000000000000000006000000000000002000000000000000396000000000000193402016032100000010000000000000BRBBDCACNPR8640
012016022978BBDCC65     070BBDCE       PN      N1000R$  000000000000500000000000050000000000005000000000000500000000000050000000000000000000000002000001000000000000012000000000000000060000000000000243402016032100000010000000000000BRBBDCACNPR8638
012016022978BBDCC7      070BBDC        PN      N1000R$  000000000026700000000003020000000000267000000000028200000000002700000000000000000000000000000007000000000000009200000000000002599800000000000185902016032100000010000000000000BRBBDCACNPR8638
012016022978BBDCC72     070BBDC        PN      N1000R$  000000000007300000000001000000000000072000000000008400000000000850000000000070000000000000000103000000000000198300000000000016666100000000000211102016032100000010000000000000BRBBDCACNPR8639
012016022978BBDCC74     070BBDCE       PN      N1000R$  000000000001700000000000170000000000017000000000001700000000000170000000000001000000000010000001000000000000000100000000000000001700000000000233602016032100000010000000000000BRBBDCACNPR8639
012016022978BBDCC8      070BBDC        PN      N1000R$  000000000034000000000003400000000000340000000000034000000000003400000000000000000000000000000001000000000000000100000000000000034000000000000175902016032100000010000000000000BRBBDCACNPR8640
012016022978BBDCC81     070BBDCE       PN      N1000R$  000000000011900000000001460000000000114000000000012000000000001460000000000100000000000000000003000000000000009100000000000001092600000000000203402016032100000010000000000000BRBBDCACNPR8639
012016022978BBDCC82     070BBDC  FM    PN      N1000R$  000000000005000000000000740000000000048000000000005600000000000620000000000002000000000007000168000000000000676600000000000038419000000000000216102016032100000010000000000000BRBBDCACNPR8639
012016022978BBDCC9      070BBDC        PN      N1000R$  000000000025000000000002500000000000250000000000025000000000002500000000000050000000000000000002000000000000000400000000000000100000000000000190902016032100000010000000000000BRBBDCACNPR8640
012016022978BBDCC93     070BBDCE       PN      N1000R$  000000000001900000000000270000000000019000000000002200000000000190000000000001000000000000000008000000000000026000000000000000588000000000000228602016032100000010000000000000BRBBDCACNPR8636
012016022978BBDCC96     070BBDCE       PN      N1000R$  000000000018100000000001890000000000180000000000018200000000001890000000000000000000000000000004000000000000193600000000000035401000000000000262302017032000000010000000000000BRBBDCACNPR8644
012016022978BBDCD10     070BBDCE       PN      N1000R$  000000000005300000000000530000000000045000000000005100000000000450000000000020000000000000000003000000000000009000000000000000465000000000000231402016041800000010000000000000BRBBDCACNPR8629
012016022978BBDCD11     070BBDCE       PN      N1000R$  000000000003000000000000300000000000030000000000003000000000000300000000000000000000000000000001000000000000008000000000000000240000000000000235502016041800000010000000000000BRBBDCACNPR8629
012016022978BBDCD12     070BBDCE       PN      N1000R$  000000000002600000000000310000000000026000000000003000000000000310000000000010000000000000000035000000000000176400000000000005299400000000000239702016041800000010000000000000BRBBDCACNPR8629
012016022978BBDCD13     070BBDC  FM    PN      N1000R$  000000000008400000000001030000000000077000000000008900000000000920000000000000000000000000000057000000000000122000000000000010876300000000000218902016041800000010000000000000BRBBDCACNPR8636
012016022978BBDCD2      070BBDC        PN      N1000R$  000000000011900000000001400000000000119000000000013000000000001310000000000104000000000000000022000000000000035400000000000004637200000000000211402016041800000010000000000000BRBBDCACNPR8637
012016022978BBDCD30     070BBDCE       PN      N1000R$  000000000000600000000000060000000000006000000000000600000000000060000000000000000000000000600001000000000000003000000000000000018000000000000269702016041800000010000000000000BRBBDCACNPR8638
012016022978BBDCD34     070BBDC        PN      N1000R$  000000000023400000000002340000000000234000000000023400000000002340000000000100000000000000000001000000000000000200000000000000046800000000000196402016041800000010000000000000BRBBDCACNPR8640
012016022978BBDCD4      070BBDC  FM    PN      N1000R$  000000000004800000000000610000000000046000000000005300000000000590000000000035000000000000000030000000000000055200000000000002977400000000000228902016041800000010000000000000BRBBDCACNPR8633
012016022978BBDCD42     070BBDC        PN      N1000R$  000000000010300000000001260000000000103000000000011000000000001090000000000000000000000000000003000000000000008200000000000000905500000000000213902016041800000010000000000000BRBBDCACNPR8636
012016022978BBDCD46     070BBDCE       PN      N1000R$  000000000000400000000000040000000000004000000000000400000000000040000000000000000000000000000001000000000000004000000000000000016000000000000274702016041800000010000000000000BRBBDCACNPR8631
012016022978BBDCD53     070BBDC        PN      N1000R$  000000000005900000000000780000000000059000000000006200000000000780000000000000000000000009600002000000000000009500000000000000589000000000000223902016041800000010000000000000BRBBDCACNPR8636
012016022978BBDCD6      070BBDC        PN      N1000R$  000000000009500000000001130000000000095000000000010200000000000970000000000000000000000014900017000000000000039400000000000004046700000000000216402016041800000010000000000000BRBBDCACNPR8642
012016022978BBDCD60     070BBDCE       PN      N1000R$  000000000012600000000001570000000000126000000000014500000000001350000000000000000000000000000012000000000000030400000000000004436300000000000208902016041800000010000000000000BRBBDCACNPR8642
012016022978BBDCD61     070BBDC  FM    PN      N1000R$  000000000014000000000001740000000000137000000000015100000000001600000000000000000000000000000042000000000000104500000000000015810200000000000206402016041800000010000000000000BRBBDCACNPR8638
012016022978BBDCD63     070BBDCE       PN      N1000R$  000000000006900000000000920000000000069000000000008100000000000750000000000045000000000000000034000000000000030600000000000002503100000000000221402016041800000010000000000000BRBBDCACNPR8636
012016022978BBDCD64     070BBDC  FM    PN      N1000R$  000000000002300000000000280000000000022000000000002500000000000250000000000000000000000004000020000000000000040600000000000001052200000000000242202016041800000010000000000000BRBBDCACNPR8643
012016022978BBDCD81     070BBDC  FM    PN      N1000R$  000000000017200000000002060000000000170000000000018500000000001930000000000160000000000000000044000000000000116200000000000021530600000000000201402016041800000010000000000000BRBBDCACNPR8637
012016022978BBDCE32     070BBDC        PN      N1000R$  000000000009600000000000960000000000096000000000009600000000000960000000000060000000000000000001000000000000000100000000000000009600000000000227602016051600000010000000000000BRBBDCACNPR8644
012016022978BBDCE42     070BBDC        PN      N1000R$  000000000014400000000001440000000000144000000000014400000000001440000000000000000000000000000001000000000000002100000000000000302400000000000217602016051600000010000000000000BRBBDCACNPR8639
012016022978BBDCE61     070BBDC        PN      N1000R$  000000000019000000000001900000000000190000000000019000000000001900000000000000000000000000000001000000000000001100000000000000209000000000000207602016051600000010000000000000BRBBDCACNPR8638
012016022978BBDCE72     070BBDC        PN      N1000R$  000000000016500000000001650000000000165000000000016500000000001650000000000000000000000000000001000000000000002100000000000000346500000000000212602016051600000010000000000000BRBBDCACNPR8636
012016022978BBDCE73     070BBDC        PN      N1000R$  000000000012100000000001210000000000121000000000012100000000001210000000000000000000000000000004000000000000010000000000000001210000000000000222602016051600000010000000000000BRBBDCACNPR8636
012016022978BBDCE86     070BBDC        PN      N1000R$  000000000006300000000000630000000000063000000000006300000000000630000000000000000000000000000013000000000000039500000000000002488500000000000237602016051600000010000000000000BRBBDCACNPR8631
012016022978BBDCG65     070BBDC        PN      N1000R$  000000000003000000000000300000000000030000000000003000000000000300000000000021000000000000000001000000000000000600000000000000018000000000000277602016071800000010000000000000BRBBDCACNPR8626
012016022978BBDCI83     070BBDC        PN      N1000R$  000000000021600000000002170000000000216000000000021600000000002170000000000000000000000000000002000000000000050000000000000010817500000000000223002016091900000010000000000000BRBBDCACNPR8632
012016022978BBDCL10     070BBDC        PN      N1000R$  000000000036800000000003680000000000368000000000036800000000003680000000000132000000000039800001000000000000000500000000000000184000000000000208202016121900000010000000000000BRBBDCACNPR8633
012016022982BBDCN14     080BBDCE       PN      N1000R$  000000000006000000000000600000000000051000000000005100000000000510000000000000000000000000000003000000000000039200000000000002000100000000000167102017022000000010000000000000BRBBDCACNPR8643
012016022982BBDCN17     080BBDCE       PN      N1000R$  000000000019500000000001950000000000178000000000018400000000001780000000000000000000000000000003000000000000063800000000000011774600000000000207102017022000000010000000000000BRBBDCACNPR8643
012016022982BBDCN33     080BBDCE       ON      N1000R$  000000000022200000000002220000000000222000000000022200000000002220000000000000000000000000000002000000000000007800000000000001731600000000000227302017022000000010000000000000BRBBDCACNOR1643
012016022982BBDCN68     080BBDCE       PN      N1000R$  000000000008600000000000860000000000086000000000008600000000000860000000000000000000000000000001000000000000024600000000000002115600000000000179602017022000000010000000000000BRBBDCACNPR8643
012016022982BBDCN94     080BBDCE       ON      N1000R$  000000000005800000000000580000000000058000000000005800000000000580000000000000000000000000000002000000000000007800000000000000452400000000000182302017022000000010000000000000BRBBDCACNOR1643
012016022982BBDCO1      080BBDCE       PN      N1000R$  000000000028300000000002850000000000283000000000028300000000002830000000000000000000000000000009000000000000030000000000000008508600000000000238602016032100000010000000000000BRBBDCACNPR8635
012016022982BBDCO20     080BBDCE       PN      N1000R$  000000000003000000000000300000000000019000000000002200000000000230000000000000000000000010000015000000000000041200000000000000946400000000000195902016032100000010000000000000BRBBDCACNPR8640
012016022982BBDCO21     080BBDCE       PN      N1000R$  000000000005800000000000580000000000040000000000004500000000000440000000000041000000000005200082000000000000404900000000000018497200000000000205902016032100000010000000000000BRBBDCACNPR8640
012016022982BBDCO27     080BBDCE FM    PN      N1000R$  000000000003400000000000340000000000022000000000002500000000000300000000000020000000000003100086000000000000188800000000000004902700000000000198402016032100000010000000000000BRBBDCACNPR8643
012016022982BBDCO40     080BBDCE       PN      N1000R$  000000000004000000000000400000000000040000000000004000000000000400000000000000000000000000000001000000000000000500000000000000020000000000000200902016032100000010000000000000BRBBDCACNPR8640
012016022982BBDCO41     080BBDCE FM    PN      N1000R$  000000000011700000000001260000000000093000000000010900000000001020000000000000000000000000000067000000000000158400000000000017414300000000000218602016032100000010000000000000BRBBDCACNPR8642
012016022982BBDCO47     080BBDCE       PN      N1000R$  000000000000200000000000020000000000002000000000000200000000000020000000000000000000000000500002000000000000001300000000000000002600000000000170902016032100000010000000000000BRBBDCACNPR8642
012016022982BBDCO51     080BBDCE FM    PN      N1000R$  000000000006200000000000690000000000049000000000005800000000000540000000000000000000000000000052000000000000113900000000000006687400000000000208402016032100000010000000000000BRBBDCACNPR8638
012016022982BBDCO60     080BBDCE FM    PN      N1000R$  000000000002200000000000220000000000016000000000001900000000000180000000000000000000000000000019000000000000030000000000000000578900000000000193402016032100000010000000000000BRBBDCACNPR8640
012016022982BBDCO7      080BBDCE       PN      N1000R$  000000000001200000000000120000000000009000000000001000000000000100000000000009000000000000000016000000000000062000000000000000628000000000000185902016032100000010000000000000BRBBDCACNPR8638
012016022982BBDCO72     080BBDCE       PN      N1000R$  000000000007600000000000760000000000059000000000006000000000000610000000000000000000000000000005000000000000003500000000000000210400000000000211102016032100000010000000000000BRBBDCACNPR8639
012016022982BBDCO8      080BBDCE       PN      N1000R$  000000000000400000000000050000000000004000000000000400000000000050000000000003000000000000000003000000000000015000000000000000061000000000000175902016032100000010000000000000BRBBDCACNPR8640
012016022982BBDCO81     080BBDCE       PN      N1000R$  000000000004600000000000470000000000040000000000004500000000000400000000000000000000000000000011000000000000032200000000000001480200000000000203402016032100000010000000000000BRBBDCACNPR8639
012016022982BBDCO82     080BBDCE       PN      N1000R$  000000000009700000000000970000000000082000000000009200000000000920000000000000000000000000000005000000000000012400000000000001142100000000000216102016032100000010000000000000BRBBDCACNPR8639
012016022982BBDCO83     080BBDCE       PN      N1000R$  000000000017500000000001780000000000160000000000017200000000001600000000000000000000000000000004000000000000193600000000000033410800000000000204802017032000000010000000000000BRBBDCACNPR8644
012016022982BBDCO9      080BBDCE       PN      N1000R$  000000000002200000000000260000000000019000000000001900000000000260000000000000000000000003900007000000000000096900000000000001916600000000000190902016032100000010000000000000BRBBDCACNPR8640
012016022982BBDCO98     080BBDCE       PN      N1000R$  000000000000600000000000080000000000005000000000000600000000000080000000000000000000000010000006000000000000021200000000000000145800000000000180902016032100000010000000000000BRBBDCACNPR8639
012016022982BBDCP1      080BBDCE       PN      N1000R$  000000000003400000000000340000000000025000000000002700000000000280000000000026000000000003000188000000000000714200000000000019897500000000000186402016041800000010000000000000BRBBDCACNPR8638
012016022982BBDCP13     080BBDCE FM    PN      N1000R$  000000000013900000000001480000000000118000000000013200000000001260000000000000000000000000000064000000000000124400000000000016526300000000000218902016041800000010000000000000BRBBDCACNPR8636
012016022982BBDCP2      080BBDCE       PN      N1000R$  000000000009800000000000990000000000087000000000009700000000000990000000000000000000000000000007000000000000055200000000000005402300000000000211402016041800000010000000000000BRBBDCACNPR8637
012016022982BBDCP3      080BBDCE FM    PN      N1000R$  000000000005600000000000590000000000047000000000005300000000000530000000000000000000000000000023000000000000046100000000000002457300000000000198902016041800000010000000000000BRBBDCACNPR8638
012016022982BBDCP39     080BBDCE FM    PN      N1000R$  000000000004400000000000460000000000036000000000004200000000000390000000000000000000000006700110000000000000272900000000000011516100000000000193902016041800000010000000000000BRBBDCACNPR8643
012016022982BBDCP42     080BBDCE       PN      N1000R$  000000000009800000000000980000000000098000000000009800000000000980000000000000000000000000000001000000000000001000000000000000098000000000000213902016041800000010000000000000BRBBDCACNPR8636
012016022982BBDCP5      080BBDCE       PN      N1000R$  000000000003700000000000400000000000037000000000003700000000000400000000000000000000000000000083000000000000257100000000000009621800000000000191402016041800000010000000000000BRBBDCACNPR8642
012016022982BBDCP51     080BBDCE       PN      N1000R$  000000000001100000000000110000000000011000000000001100000000000110000000000000000000000000000001000000000000004000000000000000044000000000000166402016041800000010000000000000BRBBDCACNPR8643
012016022982BBDCP56     080BBDCE       PN      N1000R$  000000000001200000000000120000000000012000000000001200000000000120000000000000000000000000000002000000000000008000000000000000096000000000000168902016041800000010000000000000BRBBDCACNPR8643
012016022982BBDCP6      080BBDCE       PN      N1000R$  000000000013100000000001310000000000109000000000011500000000001200000000000000000000000000000015000000000000031400000000000003640900000000000216402016041800000010000000000000BRBBDCACNPR8642
012016022982BBDCP60     080BBDCE FM    PN      N1000R$  000000000009100000000000960000000000075000000000008700000000000830000000000000000000000015900044000000000000093500000000000008174800000000000208902016041800000010000000000000BRBBDCACNPR8642
012016022982BBDCP61     080BBDCE       PN      N1000R$  000000000008300000000000860000000000068000000000008200000000000680000000000000000000000000000073000000000000107800000000000008889700000000000206402016041800000010000000000000BRBBDCACNPR8638
012016022982BBDCP63     080BBDCE       PN      N1000R$  000000000015900000000001590000000000135000000000014700000000001350000000000000000000000000000003000000000000008200000000000001209300000000000221402016041800000010000000000000BRBBDCACNPR8636
012016022982BBDCP67     080BBDCE       PN      N1000R$  000000000001300000000000130000000000013000000000001300000000000130000000000000000000000000000001000000000000000100000000000000001300000000000173902016041800000010000000000000BRBBDCACNPR8643
012016022982BBDCP68     080BBDCE       PN      N1000R$  000000000001900000000000190000000000019000000000001900000000000190000000000000000000000000000001000000000000000100000000000000001900000000000181402016041800000010000000000000BRBBDCACNPR8643
012016022982BBDCP71     080BBDCE       PN      N1000R$  000000000007200000000000760000000000060000000000007200000000000640000000000000000000000000000082000000000000133900000000000009641200000000000203902016041800000010000000000000BRBBDCACNPR8639
012016022982BBDCP8      080BBDCE       PN      N1000R$  000000000000800000000000080000000000008000000000000800000000000080000000000000000000000000000001000000000000004000000000000000032000000000000161402016041800000010000000000000BRBBDCACNPR8643
012016022982BBDCP81     080BBDCE       PN      N1000R$  000000000005500000000000550000000000055000000000005500000000000550000000000000000000000000000002000000000000004200000000000000231000000000000201402016041800000010000000000000BRBBDCACNPR8637
012016022982BBDCQ72     080BBDCE       PN      N1000R$  000000000011800000000001180000000000118000000000011800000000001180000000000000000000000000000001000000000000000100000000000000011800000000000212602016051600000010000000000000BRBBDCACNPR8636
012016022982BBDCR21     080BBDCE       PN      N1000R$  000000000013000000000001300000000000129000000000012900000000001290000000000000000000000000000002000000000000200000000000000025900000000000000210302016062000000010000000000000BRBBDCACNPR8643
012016022912BBFI11B     010FII BB PROGRCI      MB   R$  000000022200000000002275000000000222000000000022687100000002275000000000220102000000022750000004000000000000000014000000000003176200000000000000009999123100000010000000000000BRBBFICTF006227
012016022912BBPO11      010FII BB PRGIICI           R$  000000000965700000000096990000000009580000000000963400000000095800000000009569000000000958000251000000000000035689000000000343840910000000000000009999123100000010000000000000BRBBPOCTF003139
012016022912BBRC11      010FII BB CORP CI           R$  000000000805100000000082000000000008050000000000808800000000082000000000008200000000000825000009000000000000000438000000000003542874000000000000009999123100000010000000000000BRBBRCCTF004153
012016022902BBRK3       010BR BROKERS  ON      NM   R$  000000000015500000000001550000000000154000000000015400000000001540000000000151000000000015500751000000000000122900000000000019047500000000000000009999123100000010000000000000BRBBRKACNOR4110
012016022914BBSD11      010BB ETF SP DVCI           R$  000000000294200000000029420000000002942000000000294200000000029420000000002451000000000000000002000000000000000400000000000001176800000000000000009999123100000010000000000000BRBBSDCTF000100
012016022902BBSE3       010BBSEGURIDADEON   ED NM   R$  000000000241000000000024590000000002377000000000241800000000024120000000002412000000000241416090000000000006126800000000014819531100000000000000009999123100000010000000000000BRBBSEACNOR5106
012016022996BBSE3F      020BBSEGURIDADEON   ED NM   R$  000000000236700000000024510000000002367000000000243000000000024220000000002418000000000242201075000000000000008473000000000020592942000000000000009999123100000010000000000000BRBBSEACNOR5106
012016022978BBSEC22     070BBSE    /EDRON      NM000R$  000000000035000000000003500000000000339000000000034000000000003390000000000000000000000035000002000000000000001200000000000000409000000000000212902016032100000010000000000000BRBBSEACNOR5105
012016022978BBSEC24     070BBSEE   /EDRON      NM000R$  000000000014300000000001430000000000143000000000014300000000001430000000000000000000000000000001000000000000003200000000000000457600000000000235402016032100000010000000000000BRBBSEACNOR5105
012016022978BBSEC25     070BBSE    /EDRON      NM000R$  000000000009500000000001150000000000095000000000010600000000001100000000000000000000000000000003000000000000002700000000000000287000000000000242902016032100000010000000000000BRBBSEACNOR5105
012016022978BBSEC26     070BBSE    /EDRON      NM000R$  000000000005900000000000670000000000058000000000006100000000000650000000000037000000000008500036000000000000333100000000000020646400000000000252902016032100000010000000000000BRBBSEACNOR5105
012016022978BBSEC27     070BBSE    /EDRON      NM000R$  000000000003500000000000350000000000035000000000003500000000000350000000000000000000000000000003000000000000009000000000000000315000000000000262902016032100000010000000000000BRBBSEACNOR5105
012016022978BBSEC28     070BBSE  FM/EDRON      NM000R$  000000000002400000000000260000000000024000000000002400000000000240000000000000000000000000000004000000000000002200000000000000054200000000000267902016032100000010000000000000BRBBSEACNOR5105
012016022978BBSEC55     070BBSE  FM/EDRON      NM000R$  000000000008000000000000900000000000065000000000007300000000000890000000000000000000000000000027000000000000125200000000000009255500000000000247902016032100000010000000000000BRBBSEACNOR5105
012016022978BBSEC56     070BBSE  FM/EDRON      NM000R$  000000000004500000000000450000000000045000000000004500000000000450000000000000000000000005500001000000000000001500000000000000067500000000000257902016032100000010000000000000BRBBSEACNOR5105
012016022978BBSEC64     070BBSE  FM/EDRON      NM000R$  000000000015600000000001580000000000156000000000015700000000001580000000000000000000000000000002000000000000060200000000000009511200000000000232902016032100000010000000000000BRBBSEACNOR5105
012016022978BBSEC93     070BBSEE       ON      NM000R$  000000000058700000000007040000000000587000000000070300000000007040000000000000000000000000000002000000000000012400000000000008717900000000000244202017032000000010000000000000BRBBSEACNOR5106
012016022978BBSEC94     070BBSEE       ON      NM000R$  000000000038000000000003800000000000356000000000035600000000003560000000000000000000000000000003000000000000024700000000000008810300000000000299202017032000000010000000000000BRBBSEACNOR5106
012016022978BBSED24     070BBSE    /EDRON      NM000R$  000000000019200000000001930000000000192000000000019200000000001930000000000000000000000000000002000000000000024000000000000004620000000000000232902016041800000010000000000000BRBBSEACNOR5105
012016022978BBSED25     070BBSE    /EDRON      NM000R$  000000000017900000000001790000000000168000000000016900000000001680000000000000000000000000000005000000000000009200000000000001556600000000000242902016041800000010000000000000BRBBSEACNOR5105
012016022978BBSED28     070BBSE    /EDRON      NM000R$  000000000005800000000000580000000000057000000000005700000000000570000000000000000000000000000002000000000000025000000000000001426000000000000272902016041800000010000000000000BRBBSEACNOR5105
012016022978BBSED55     070BBSEE   /EDRON      NM000R$  000000000013400000000001340000000000134000000000013400000000001340000000000000000000000000000001000000000000000600000000000000080400000000000250402016041800000010000000000000BRBBSEACNOR5105
012016022978BBSED66     070BBSEE   /EDRON      NM000R$  000000000012000000000001200000000000120000000000012000000000001200000000000000000000000000000003000000000000015000000000000001800000000000000255402016041800000010000000000000BRBBSEACNOR5105
012016022982BBSEO20     080BBSEE   /EDRON      NM000R$  000000000000600000000000070000000000006000000000000600000000000070000000000000000000000000000002000000000000120000000000000000759500000000000192902016032100000010000000000000BRBBSEACNOR5105
012016022982BBSEO23     080BBSEE FM/EDRON      NM000R$  000000000003300000000000330000000000033000000000003300000000000330000000000000000000000000000001000000000000002000000000000000066000000000000222902016032100000010000000000000BRBBSEACNOR5105
012016022982BBSEO61     080BBSEE   /EDRON      NM000R$  000000000000500000000000090000000000005000000000000600000000000090000000000000000000000001000006000000000000090000000000000000610000000000000200402016032100000010000000000000BRBBSEACNOR5105
012016022982BBSEP50     080BBSEE   /EDRON      NM000R$  000000000002300000000000230000000000023000000000002300000000000230000000000000000000000000000001000000000000024000000000000000552000000000000197902016041800000010000000000000BRBBSEACNOR5105
012016022902BBTG11      010BTG PACTUAL UNT          R$  000000000182800000000019820000000001828000000000185500000000019800000000001961000000000198001280000000000002983700000000005536147300000000000000009999123100000010000000000000BRBBTGUNT007113
012016022996BBTG11F     020BTG PACTUAL UNT          R$  000000000185500000000019790000000001855000000000191600000000019790000000001921000000000200000011000000000000000231000000000000442647000000000000009999123100000010000000000000BRBBTGUNT007113
012016022962BBTG11T     030BTG PACTUAL UNT       182R$  000000000198800000000019890000000001988000000000198800000000019890000000000000000000000000000002000000000002404400000000004781247980000000000000009999123100000010000000000000BRBBTGUNT007113
012016022912BBVJ11      010FII C JARDIMCI           R$  000000000429900000000042990000000004160000000000418600000000042100000000004200000000000429900023000000000000001700000000000007116271000000000000009999123100000010000000000000BRBBVJCTF001162
012016022912BCFF11B     010FII BC FFII CI      MB   R$  000000000567000000000057430000000005658000000000569700000000057430000000005685000000000574300035000000000000002739000000000015605225000000000000009999123100000010000000000000BRBCFFCTF000171
012016022912BCRI11      010FII BEES CRICI           R$  000000000885000000000090000000000008850000000000897400000000090000000000009000000000000913100009000000000000002608000000000023404200000000000000009999123100000010000000000000BRBCRICTF009107
012016022902BDLL4       010BARDELLA    PN           R$  000000000330000000000033000000000003300000000000330000000000033000000000003100000000000330000002000000000000001000000000000003300000000000000000009999123100000010000000000000BRBDLLACNPR8151
012016022996BDLL4F      020BARDELLA    PN           R$  000000000330000000000033000000000003300000000000330000000000033000000000003200000000000330000004000000000000000042000000000000138600000000000000009999123100000010000000000000BRBDLLACNPR8151
012016022902BEEF3       010MINERVA     ON      NM   R$  000000000117500000000011920000000001124000000000116800000000011810000000001175000000000118104305000000000001050300000000001226881600000000000000009999123100000010000000000000BRBEEFACNOR6106
012016022996BEEF3F      020MINERVA     ON      NM   R$  000000000114500000000011830000000001138000000000116000000000011380000000001138000000000130000073000000000000000668000000000000774992000000000000009999123100000010000000000000BRBEEFACNOR6106
012016022902BEES3       010BANESTES    ON           R$  000000000019000000000001900000000000189000000000018900000000001890000000000185000000000018800002000000000000000300000000000000056900000000000000009999123100000010000000000000BRBEESACNOR9277
012016022996BEES3F      020BANESTES    ON           R$  000000000018500000000001850000000000170000000000017800000000001700000000000170000000000018800003000000000000000090000000000000016050000000000000009999123100000010000000000000BRBEESACNOR9277
012016022902BEES4       010BANESTES    PN           R$  000000000018400000000001840000000000184000000000018400000000001840000000000181000000000018400001000000000000000200000000000000036800000000000000009999123100000010000000000000BRBEESACNPR6202
012016022996BEES4F      020BANESTES    PN           R$  000000000018500000000001850000000000185000000000018500000000001850000000000000000000000018500001000000000000000020000000000000003700000000000000009999123100000010000000000000BRBEESACNPR6202
012016022902BERK34      010BERKSHIRE   DRN          R$  000000005322300000000540000000000053223000000005358400000000540000000000053314000000005439100007000000000000001300000000000069660200000000000000009999123100000010000000000000BRBERKBDR002100
012016022996BERK34F     020BERKSHIRE   DRN          R$  000000005385200000000538520000000053852000000005385200000000538520000000000100000000000000000002000000000000000132000000000007108464000000000000009999123100000010000000000000BRBERKBDR002100
012016022902BGIP3       010BANESE      ON           R$  000000000137100000000014210000000001371000000000139800000000014010000000001400000000000144000004000000000000000500000000000000699400000000000000009999123100000010000000000000BRBGIPACNOR1186
012016022902BGIP4       010BANESE      PN           R$  000000000118000000000012970000000001180000000000120400000000012400000000001219000000000123900032000000000000003800000000000004576000000000000000009999123100000010000000000000BRBGIPACNPR8186
012016022996BGIP4F      020BANESE      PN           R$  000000000118000000000011800000000001180000000000118000000000011800000000001000000000000000000003000000000000000080000000000000094400000000000000009999123100000010000000000000BRBGIPACNPR8186
012016022902BMIN4       010MERC INVEST PN           R$  000000000001700000000000170000000000017000000000001700000000000170000000000015000000000001800001000000000000003000000000000000051000000000000000009999123100000010000000000000BRBMINACNPR1164
012016022996BMIN4F      020MERC INVEST PN           R$  000000000001500000000000150000000000015000000000001500000000000150000000000013000000000000000001000000000000000240000000000000003600000000000000009999123100000010000000000000BRBMINACNPR1164
012016022902BMKS3       010BIC MONARK  ON           R$  000000002520000000000252000000000025200000000002520000000000252000000000024200000000002520000002000000000000000020000000000000504000000000000000009999123100000010000000000000BRBMKSACNOR9157
012016022912BMLC11B     010FII BMBRC LCCI      MB   R$  000000000685000000000068600000000006700000000000673500000000067000000000006700000000000685000006000000000000000888000000000005980900000000000000009999123100000010000000000000BRBMLCCTF004148
012016022902BMTO3       010BRASMOTOR   ON           R$  000000000034900000000003510000000000349000000000035000000000003510000000000353000000000038900005000000000000000900000000000000315500000000000000009999123100000010000000000000BRBMTOACNOR9186
012016022902BMTO4       010BRASMOTOR   PN           R$  000000000039300000000003930000000000384000000000038500000000003900000000000384000000000039000011000000000000006500000000000002503900000000000000009999123100000010000000000000BRBMTOACNPR6071
012016022912BNFS11      010FII BANRISULCI           R$  000000000899900000000089990000000008751000000000877100000000087510000000008756000000000899700010000000000000000292000000000002561378000000000000009999123100000010000000000000BRBNFSCTF000141
012016022902BOAC34      010BANK AMERICADRN          R$  000000000505800000000050580000000005023000000000505700000000050230000000000000000000000000000003000000000000014700000000000074349100000000000000009999123100000010000000000000BRBOACBDR004121
012016022996BOAC34F     020BANK AMERICADRN          R$  000000000505800000000050580000000005058000000000505800000000050580000000000000000000000000000002000000000000000125000000000000632250000000000000009999123100000010000000000000BRBOACBDR004121
012016022902BOBR4       010BOMBRIL     PN           R$  000000000013000000000001440000000000125000000000012900000000001340000000000139000000000014400007000000000000002300000000000000297900000000000000009999123100000010000000000000BRBOBRACNPR3128
012016022996BOBR4F      020BOMBRIL     PN           R$  000000000014200000000001420000000000142000000000014200000000001420000000000127000000000013400001000000000000000020000000000000002840000000000000009999123100000010000000000000BRBOBRACNPR3128
012016022902BOEI34      010BOEING      DRN          R$  000000004745100000000474510000000047451000000004745100000000474510000000000000000000000000000001000000000000000100000000000004745100000000000000009999123100000010000000000000BRBOEIBDR003116
012016022996BOEI34F     020BOEING      DRN          R$  000000004745100000000474510000000047451000000004745100000000474510000000000000000000000000000002000000000000000047000000000002230197000000000000009999123100000010000000000000BRBOEIBDR003116
012016022902BONY34      010BNY MELLON  DRN          R$  000000001420000000000142900000000014200000000001424500000000142900000000000000000000000000000002000000000000000400000000000005698000000000000000009999123100000010000000000000BRBONYBDR001102
012016022996BONY34F     020BNY MELLON  DRN          R$  000000001429000000000142900000000014290000000001429000000000142900000000000000000000000000000002000000000000000137000000000001957730000000000000009999123100000010000000000000BRBONYBDR001102
012016022914BOVA11      010ISHARES BOVACI           R$  000000000406000000000041810000000004060000000000413800000000041450000000004145000000000415218325000000000001974320000000008170268350000000000000009999123100000010000000000000BRBOVACTF003102
012016022996BOVA11F     020ISHARES BOVACI           R$  000000000404800000000041750000000004048000000000413700000000041420000000004105000000000417000027000000000000000113000000000000467548000000000000009999123100000010000000000000BRBOVACTF003102
012016022978BOVAC41     070BOVA  FM    CI        000R$  000000000016800000000001680000000000168000000000016800000000001680000000000000000000000000000001000000000000005000000000000000840000000000000410002016032100000010000000000000BRBOVACTF003102
012016022978BOVAC42     070BOVA  FM    CI        000R$  000000000008700000000001240000000000086000000000010400000000001240000000000020000000000000000013000000000000013510000000000001407400000000000420002016032100000010000000000000BRBOVACTF003102
012016022978BOVAC43     070BOVA  FM    CI        000R$  000000000005100000000000750000000000051000000000006000000000000750000000000020000000000000000013000000000000002300000000000000138100000000000430002016032100000010000000000000BRBOVACTF003102
012016022978BOVAD40     070BOVA  FM    CI        000R$  000000000028300000000002830000000000283000000000028300000000002830000000000000000000000000000001000000000000000300000000000000084900000000000400002016041800000010000000000000BRBOVACTF003102
012016022978BOVAD41     070BOVA  FM    CI        000R$  000000000025900000000002590000000000225000000000025800000000002250000000000000000000000000000002000000000000006350000000000001642950000000000410002016041800000010000000000000BRBOVACTF003102
012016022978BOVAD44     070BOVA  FM    CI        000R$  000000000009000000000000900000000000090000000000009000000000000900000000000000000000000016000001000000000000000350000000000000031500000000000440002016041800000010000000000000BRBOVACTF003102
012016022982BOVAO37     080BOVAE       CI        000R$  000000000001000000000000100000000000010000000000001000000000000100000000000009000000000000000001000000000000000200000000000000002000000000000370002016032100000010000000000000BRBOVACTF003102
012016022982BOVAO40     080BOVAE FM    CI        000R$  000000000006800000000000680000000000052000000000005800000000000540000000000000000000000007000006000000000000030020000000000001750310000000000400002016032100000010000000000000BRBOVACTF003102
012016022982BOVAO41     080BOVAE FM    CI        000R$  000000000009900000000000990000000000095000000000009500000000000950000000000000000000000009900003000000000000003200000000000000304400000000000410002016032100000010000000000000BRBOVACTF003102
012016022982BOVAP38     080BOVAE       CI        000R$  000000000004800000000000480000000000048000000000004800000000000480000000000000000000000005500001000000000000000100000000000000004800000000000380002016041800000010000000000000BRBOVACTF003102
012016022982BOVAP39     080BOVAE FM    CI        000R$  000000000006400000000000640000000000064000000000006400000000000640000000000000000000000000000001000000000000000300000000000000019200000000000390002016041800000010000000000000BRBOVACTF003102
012016022902BPAN4       010BANCO PAN   PN      N1   R$  000000000016500000000001750000000000165000000000016900000000001690000000000167000000000016900123000000000001155400000000000196380800000000000000009999123100000010000000000000BRBPANACNPR1104
012016022996BPAN4F      020BANCO PAN   PN      N1   R$  000000000017500000000001750000000000159000000000017000000000001590000000000159000000000017000004000000000000000108000000000000018452000000000000009999123100000010000000000000BRBPANACNPR1104
012016022912BPFF11      010FII ABSOLUTOCI           R$  000000000604400000000060490000000005910000000000598700000000060490000000005911000000000604900040000000000000002441000000000014616160000000000000009999123100000010000000000000BRBPFFCTF002134
012016022922BPHA11      010BR PHARMA   BNS ORD NM   R$  000000000000200000000000020000000000002000000000000200000000000020000000000001000000000000200012000000000000323000000000000000646000000000000000009999123100000010000000000000BRBPHAN01OR0100
012016022902BPHA3       010BR PHARMA   ON      NM   R$  000000000053000000000005550000000000510000000000053300000000005210000000000521000000000053600405000000000000211500000000000112899700000000000000009999123100000010000000000000BRBPHAACNOR6104
012016022996BPHA3F      020BR PHARMA   ON      NM   R$  000000000053300000000005330000000000512000000000053000000000005150000000000510000000000057100006000000000000000171000000000000090671000000000000009999123100000010000000000000BRBPHAACNOR6104
012016022962BPHA3T      030BR PHARMA   ON      NM045R$  000000000055400000000005550000000000554000000000055400000000005550000000000000000000000000000002000000000000001600000000000000886650000000000000009999123100000010000000000000BRBPHAACNOR6104
012016022902BRAP3       010BRADESPAR   ON      N1   R$  000000000036000000000003660000000000360000000000036300000000003600000000000357000000000036900013000000000000003400000000000001234200000000000000009999123100000010000000000000BRBRAPACNOR5129
012016022996BRAP3F      020BRADESPAR   ON      N1   R$  000000000037500000000003750000000000357000000000036200000000003570000000000357000000000037300007000000000000000046000000000000016674000000000000009999123100000010000000000000BRBRAPACNOR5129
012016022902BRAP4       010BRADESPAR   PN      N1   R$  000000000040000000000004100000000000391000000000040100000000004030000000000402000000000040308001000000000004535300000000001820251700000000000000009999123100000010000000000000BRBRAPACNPR2129
012016022996BRAP4F      020BRADESPAR   PN      N1   R$  000000000038200000000004090000000000382000000000040200000000004000000000000400000000000040900059000000000000001455000000000000585438000000000000009999123100000010000000000000BRBRAPACNPR2129
012016022962BRAP4T      030BRADESPAR   PN      N1016R$  000000000040900000000004110000000000409000000000040900000000004110000000000000000000000000000004000000000000016000000000000006551474000000000000009999123100000010000000000000BRBRAPACNPR2129
012016022962BRAP4T      030BRADESPAR   PN      N1017R$  000000000040000000000004010000000000400000000000040000000000004010000000000000000000000000000002000000000000000100000000000000040037000000000000009999123100000010000000000000BRBRAPACNPR2129
012016022914BRAX11      010ISHARES BRAXCI           R$  000000000352800000000035300000000003521000000000352600000000035300000000003530000000000369400003000000000000000250000000000000881740000000000000009999123100000010000000000000BRBRAXCTF002100
012016022912BRCR11      010FII BC FUND CI           R$  000000000904300000000092400000000008951000000000903200000000089710000000008971000000000899801338000000000000036344000000000328286718000000000000009999123100000010000000000000BRBRCRCTF000162
012016022902BRFS3       010BRF SA      ON      NM   R$  000000000505200000000052010000000005005000000000514300000000051400000000005130000000000514017632000000000005432600000000027940885500000000000000009999123100000010000000000000BRBRFSACNOR8115
012016022996BRFS3F      020BRF SA      ON      NM   R$  000000000505100000000052310000000005050000000000514700000000051270000000005127000000000513600244000000000000005453000000000028068109000000000000009999123100000010000000000000BRBRFSACNOR8115
012016022962BRFS3T      030BRF SA      ON      NM016R$  000000000517900000000051800000000005179000000000517900000000051800000000000000000000000000000002000000000000020000000000000103597880000000000000009999123100000010000000000000BRBRFSACNOR8115
012016022962BRFS3T      030BRF SA      ON      NM090R$  000000000530600000000053070000000005306000000000530600000000053070000000000000000000000000000002000000000000000500000000000002653469000000000000009999123100000010000000000000BRBRFSACNOR8115
012016022962BRFS3T      030BRF SA      ON      NM182R$  000000000548300000000054840000000005483000000000548300000000054840000000000000000000000000000002000000000000001000000000000005483030000000000000009999123100000010000000000000BRBRFSACNOR8115
012016022978BRFSC1      070BRFS  FM    ON      NM000R$  000000000021600000000002880000000000214000000000025300000000002600000000000000000000000000000035000000000000037300000000000009463000000000000498902016032100000010000000000000BRBRFSACNOR8115
012016022978BRFSC14     070BRFSE       ON      NM000R$  000000000005500000000000550000000000055000000000005500000000000550000000000035000000000000000001000000000000002000000000000000110000000000000548902016032100000010000000000000BRBRFSACNOR8115
012016022978BRFSC2      070BRFSE       ON      NM000R$  000000000010200000000001020000000000102000000000010200000000001020000000000000000000000000000001000000000000000800000000000000081600000000000528902016032100000010000000000000BRBRFSACNOR8115
012016022978BRFSC21     070BRFSE       ON      NM000R$  000000000015900000000001960000000000159000000000017000000000001960000000000000000000000000000003000000000000002300000000000000391600000000000508902016032100000010000000000000BRBRFSACNOR8114
012016022978BRFSC22     070BRFSE       ON      NM000R$  000000000015500000000001610000000000140000000000015300000000001440000000000000000000000000000005000000000000005000000000000000768500000000000518902016032100000010000000000000BRBRFSACNOR8115
012016022978BRFSC50     070BRFS        ON      NM000R$  000000000029800000000002980000000000298000000000029800000000002980000000000000000000000000000001000000000000001000000000000000298000000000000493902016032100000010000000000000BRBRFSACNOR8114
012016022978BRFSC51     070BRFS        ON      NM000R$  000000000023700000000002510000000000226000000000023700000000002260000000000000000000000000000005000000000000007300000000000001730800000000000503902016032100000010000000000000BRBRFSACNOR8114
012016022978BRFSC52     070BRFS  FM    ON      NM000R$  000000000014600000000001840000000000146000000000017600000000001690000000000000000000000017800030000000000000042200000000000007427900000000000513902016032100000010000000000000BRBRFSACNOR8114
012016022978BRFSC53     070BRFS  FM    ON      NM000R$  000000000011300000000001470000000000113000000000013200000000001320000000000000000000000000000009000000000000010600000000000001407700000000000523902016032100000010000000000000BRBRFSACNOR8114
012016022978BRFSC54     070BRFS  FM    ON      NM000R$  000000000007800000000001080000000000078000000000009500000000000840000000000032000000000011100037000000000000039700000000000003785700000000000533902016032100000010000000000000BRBRFSACNOR8114
012016022978BRFSC55     070BRFS  FM    ON      NM000R$  000000000005500000000000750000000000055000000000006500000000000710000000000000000000000011800012000000000000016800000000000001099200000000000543902016032100000010000000000000BRBRFSACNOR8114
012016022978BRFSC56     070BRFS        ON      NM000R$  000000000003200000000000400000000000032000000000003200000000000400000000000030000000000004500010000000000000019500000000000000636000000000000553902016032100000010000000000000BRBRFSACNOR8114
012016022978BRFSC57     070BRFS        ON      NM000R$  000000000003100000000000310000000000031000000000003100000000000310000000000010000000000000000004000000000000002000000000000000062000000000000563902016032100000010000000000000BRBRFSACNOR8114
012016022978BRFSC93     070BRFSE       ON      NM000R$  000000000065100000000012270000000000651000000000121400000000012270000000000000000000000000000003000000000000006000000000000007284100000000000515002017032000000010000000000000BRBRFSACNOR8115
012016022978BRFSC94     070BRFSE       ON      NM000R$  000000000064700000000006470000000000621000000000062100000000006210000000000000000000000000000003000000000000011700000000000007274800000000000595002017032000000010000000000000BRBRFSACNOR8115
012016022978BRFSD11     070BRFS  FM    ON      NM000R$  000000000022100000000002480000000000221000000000023900000000002460000000000000000000000000000004000000000000004000000000000000958200000000000519602016041800000010000000000000BRBRFSACNOR8115
012016022978BRFSD12     070BRFS  FM    ON      NM000R$  000000000036600000000003760000000000361000000000036600000000003620000000000000000000000000000007000000000000004700000000000001724500000000000499602016041800000010000000000000BRBRFSACNOR8115
012016022978BRFSD21     070BRFSE       ON      NM000R$  000000000033000000000003300000000000330000000000033000000000003300000000000000000000000000000001000000000000000700000000000000231000000000000504602016041800000010000000000000BRBRFSACNOR8113
012016022978BRFSD35     070BRFS        ON      NM000R$  000000000009600000000000960000000000096000000000009600000000000960000000000000000000000000000001000000000000001000000000000000096000000000000559602016041800000010000000000000BRBRFSACNOR8115
012016022978BRFSD49     070BRFS        ON      NM000R$  000000000043200000000004320000000000432000000000043200000000004320000000000000000000000000000001000000000000000300000000000000129600000000000489602016041800000010000000000000BRBRFSACNOR8114
012016022978BRFSD50     070BRFS  FM    ON      NM000R$  000000000027100000000003250000000000271000000000030700000000003000000000000000000000000000000007000000000000009400000000000002886500000000000509602016041800000010000000000000BRBRFSACNOR8115
012016022978BRFSD52     070BRFS  FM    ON      NM000R$  000000000020100000000002100000000000201000000000020200000000002100000000000000000000000000000003000000000000001700000000000000343500000000000529602016041800000010000000000000BRBRFSACNOR8115
012016022978BRFSD55     070BRFS        ON      NM000R$  000000000013000000000001300000000000130000000000013000000000001300000000000000000000000000000001000000000000000500000000000000065000000000000549602016041800000010000000000000BRBRFSACNOR8114
012016022978BRFSD6      070BRFS  FM    ON      NM000R$  000000000016000000000001600000000000160000000000016000000000001600000000000000000000000000000001000000000000001100000000000000176000000000000539602016041800000010000000000000BRBRFSACNOR8113
012016022978BRFSE99     070BRFSE       ON      NM000R$  000000000050800000000005080000000000508000000000050800000000005080000000000000000000000000000001000000000000000700000000000000355600000000000489602016051600000010000000000000BRBRFSACNOR8114
012016022978BRFSF62     070BRFSE       ON      NM000R$  000000000011000000000001100000000000110000000000011000000000001100000000000000000000000000000002000000000000070000000000000007700000000000000618902016062000000010000000000000BRBRFSACNOR8115
012016022982BRFSO1      080BRFSE FM    ON      NM000R$  000000000006700000000000670000000000067000000000006700000000000670000000000000000000000000000001000000000000000400000000000000026800000000000498902016032100000010000000000000BRBRFSACNOR8115
012016022982BRFSO16     080BRFSE       ON      NM000R$  000000000001500000000000250000000000015000000000002200000000000250000000000000000000000000000011000000000000007700000000000000172500000000000468902016032100000010000000000000BRBRFSACNOR8115
012016022982BRFSO2      080BRFSE FM    ON      NM000R$  000000000026600000000002660000000000192000000000022500000000002180000000000000000000000030500033000000000000030600000000000006893300000000000528902016032100000010000000000000BRBRFSACNOR8115
012016022982BRFSO21     080BRFSE FM    ON      NM000R$  000000000011800000000001180000000000114000000000011600000000001140000000000000000000000000000002000000000000002900000000000000339000000000000508902016032100000010000000000000BRBRFSACNOR8114
012016022982BRFSO49     080BRFSE       ON      NM000R$  000000000003400000000000340000000000034000000000003400000000000340000000000000000000000000000001000000000000000700000000000000023800000000000483902016032100000010000000000000BRBRFSACNOR8114
012016022982BRFSO50     080BRFSE FM    ON      NM000R$  000000000006600000000000660000000000066000000000006600000000000660000000000000000000000000000001000000000000002100000000000000138600000000000493902016032100000010000000000000BRBRFSACNOR8114
012016022982BRFSO51     080BRFSE       ON      NM000R$  000000000016300000000001630000000000080000000000008100000000000800000000000000000000000011200012000000000000016300000000000001325300000000000503902016032100000010000000000000BRBRFSACNOR8114
012016022982BRFSO52     080BRFSE       ON      NM000R$  000000000014200000000001420000000000136000000000014000000000001360000000000080000000000000000002000000000000002100000000000000294600000000000513902016032100000010000000000000BRBRFSACNOR8114
012016022982BRFSP11     080BRFSE       ON      NM000R$  000000000021400000000002140000000000214000000000021400000000002140000000000000000000000000000001000000000000000200000000000000042800000000000519602016041800000010000000000000BRBRFSACNOR8115
012016022982BRFSP12     080BRFSE FM    ON      NM000R$  000000000016300000000001630000000000163000000000016300000000001630000000000000000000000000000001000000000000001200000000000000195600000000000499602016041800000010000000000000BRBRFSACNOR8115
012016022982BRFSP14     080BRFSE       ON      NM000R$  000000000003100000000000310000000000031000000000003100000000000310000000000000000000000000000001000000000000001600000000000000049600000000000449602016041800000010000000000000BRBRFSACNOR8115
012016022982BRFSP21     080BRFSE       ON      NM000R$  000000000014100000000001410000000000141000000000014100000000001410000000000000000000000000000001000000000000001000000000000000141000000000000504602016041800000010000000000000BRBRFSACNOR8113
012016022982BRFSP45     080BRFSE       ON      NM000R$  000000000004700000000000490000000000041000000000004400000000000460000000000035000000000000000009000000000000009900000000000000442100000000000454602016041800000010000000000000BRBRFSACNOR8115
012016022982BRFSP47     080BRFSE       ON      NM000R$  000000000008000000000000810000000000080000000000008000000000000810000000000000000000000000000002000000000000003300000000000000265300000000000474602016041800000010000000000000BRBRFSACNOR8115
012016022982BRFSP49     080BRFSE FM    ON      NM000R$  000000000010900000000001130000000000109000000000011000000000001130000000000000000000000000000005000000000000007700000000000000853800000000000489602016041800000010000000000000BRBRFSACNOR8114
012016022982BRFSP50     080BRFSE FM    ON      NM000R$  000000000020300000000002030000000000165000000000018000000000001650000000000000000000000000000003000000000000003900000000000000703500000000000509602016041800000010000000000000BRBRFSACNOR8115
012016022982BRFSP52     080BRFSE FM    ON      NM000R$  000000000031400000000003140000000000251000000000026700000000002730000000000262000000000000000015000000000000015500000000000004148800000000000529602016041800000010000000000000BRBRFSACNOR8115
012016022982BRFSQ99     080BRFSE       ON      NM000R$  000000000013700000000001370000000000137000000000013700000000001370000000000000000000000000000001000000000000001700000000000000232900000000000489602016051600000010000000000000BRBRFSACNOR8114
